:020000040800F2
:10000000A8040020C101000887140008A3130008F9
:100010008514000809050008A31A00080000000064
:100020000000000000000000000000006115000852
:100030000B05000800000000A91400086315000863
:10004000DB010008DB010008DB010008DB01000820
:10005000DB010008DB010008DB010008DB01000810
:10006000DB010008DB010008DB010008DB01000800
:10007000DB010008DB010008DB010008DB010008F0
:10008000DB010008DB010008DB010008DB010008E0
:10009000DB010008DB010008DB010008DB010008D0
:1000A000DB010008DB010008DB010008DB010008C0
:1000B000DB010008DB010008DB010008DB010008B0
:1000C000DB010008DB010008DB010008DB010008A0
:1000D000DB010008DB010008DB010008DB01000890
:1000E000DB010008DB010008DB010008DB01000880
:1000F000DB010008DB010008DB010008DB01000870
:10010000DB010008DB010008DB010008DB0100085F
:100110006D160008DB010008DB010008DB010008A8
:10012000DB010008DB010008DB010008DB0100083F
:10013000DB010008DB010008DB010008DB0100082F
:10014000DB010008DB010008DB010008DB0100081F
:10015000DB010008DB010008DB010008DB0100080F
:10016000DB010008DB010008DB010008DB010008FF
:10017000DB010008DB010008DB01000800000000D3
:10018000DB010008DB010008DB010008DB010008DF
:10019000DB010008DB010008DB010008DB010008CF
:1001A000DB010008DB010008DB010008DFF80CD0F0
:1001B00000F098F900480047C51A0008A80400207C
:1001C0000648804706480047FEE7FEE7FEE7FEE7F1
:1001D000FEE7FEE7FEE7FEE7FEE7FEE7191600088A
:1001E000AD0100082DE9F05F0546002092469B46D0
:1001F00088460646814640241BE02846414647463D
:10020000224600F0CAF853465A46C01A914110D30C
:1002100011461846224600F0B1F82D1A67EB010886
:100220004F4622460120002100F0A8F817EB0009F4
:100230004E41201EA4F10104DFDC484631462A4627
:100240004346BDE8F09F2DE9FE4F81EA030404F028
:10025000004421F0004100944FF0000B23F00043D4
:1002600050EA01045ED052EA03045BD0C3F30A549F
:10027000C1F30A552C44A4F2F3340194A0FB0254B8
:10028000C1F3130141F48011C3F3130343F480134A
:1002900001FB024400FB034E840A970A44EA81549E
:1002A00047EA8357A4FB076802958D0A05FB07857B
:1002B0004FEA932C04FB0C542705029D4FEA065885
:1002C00047EA1637B5EB08056EEB070C870E920E62
:1002D00047EA811742EA8312A7FB0201B6EB0B0142
:1002E00064EB00042B0D43EA0C335E1844EB1C5006
:1002F000DA465146E7FB0201C5F313044FEA0B331C
:1003000043EA14534FEA0432019C43EA0603A4F182
:100310000C040294009CCDE900B400F094F803B002
:10032000BDE8F08F00200146F9E70EB540F23341F9
:1003300002910021CDE900110A460B4600F083F836
:1003400003B000BD01F0004330B421F0004150EA99
:10035000010206D00A0DA2F56072C1F31301002A52
:1003600002DC30BC00207047440F44EAC104C100E5
:10037000E01830BC00EBC25000F01FB8202A04DBAC
:10038000203A00FA02F1002070479140C2F12003A8
:1003900020FA03F3194390407047202A04DB203AE7
:1003A00021FA02F00021704721FA02F3D040C2F195
:1003B000200291400843194670470029A8BF7047A2
:1003C000401C490008BF20F00100704710B4B0FA8B
:1003D00080FC00FA0CF050EA010404BF10BC704726
:1003E00049B1CCF1200421FA04F411FA0CF118BF40
:1003F000012121430843A3EB0C01CB1D4FEA00610F
:100400004FEA102042BF002010BC704700EBC350E1
:1004100010440029A4BF10BC7047401C490008BF0D
:1004200020F0010010BC704710B5141E73F10004D9
:1004300008DA401C41F1000192185B411A4301D1D6
:1004400020F0010010BD2DE9F04D92469B4611B100
:10045000B1FA81F202E0B0FA80F220329046FFF762
:100460008DFF04460F4640EA0A0041EA0B0153465D
:100470005A46084313D0114653EA010019D0C8F177
:1004800040025046FFF789FF05460E465046594642
:100490004246FFF773FF084305D0012004E02046E1
:1004A0003946BDE8F08D0020054346EAE0762C434E
:1004B00037430A986305E40AA0EB08000022FD0A0E
:1004C00044EA47540A3002D500200146E9E7010515
:1004D00010196941DDE9084500196941BDE8F04D91
:1004E000A2E70000064C074D06E0E06840F001037B
:1004F00094E8070098471034AC42F6D3FFF75AFE51
:10050000201E0008401E0008FEE7704790F83510D6
:10051000022903D08021416501207047052180F820
:1005200035100068016821F001010160002070476A
:1005300070B5044600F0FAF80546601C02D0044885
:100540000078044400F0F2F8401BA042FAD370BDDA
:10055000000000202DE9F84FDFF890B100224FF0A5
:1005600001084FF0030A4FF00F090BF1040E00BF12
:100570000B6808FA02F42340A3426ED14D68022DA5
:1005800001D0122D0ED1D50800EB850CDCF82050DF
:100590005607F70E09FA07F6B5430E69BE402E431B
:1005A000CCF82060066855000F790AFA05FC07F0C0
:1005B000030726EA0C06AF40374307604E68012E5A
:1005C00005D0022E03D0112E01D0122E0ED1876835
:1005D000CE6827EA0C07AE403E4386604668A643D5
:1005E0000C79C4F30014944034434460C4688E68AA
:1005F00024EA0C04AE402643C6604C68E4006FD584
:100600003B4C256845F480452560246822F00305AD
:1006100004F480440094374C2E19D6F80848950706
:100620002F0F09FA07F5AC43334DA84201D100253D
:100630002EE0324DA84201D1012529E0304DA842DB
:1006400001D1022524E02F4DA84201D103251FE04E
:100650002D4DA84202D104251AE041E02B4DA842BD
:1006600001D1052514E02A4DA84201D106250FE04D
:10067000284DA84201D107250AE0274DA84201D103
:10068000082505E0254DA84201D1092500E00A25ED
:10069000BD402543C6F80858DBF800405D464E686B
:1006A0009C43F60300D51C432C60DEF800407546E1
:1006B0004E689C43B60300D51C432C600B4D083597
:1006C0002C684E689C43F60200D51C432C60074DF5
:1006D0000C352C684E689C43B60200D51C432C6038
:1006E000521C102AFFF444AFBDE8F88F003C0140D3
:1006F0004438024000300140000002400004024043
:1007000000080240000C02400010024000140240A9
:1007100000180240001C0240002002400024024059
:100720000AB1816170470904FBE700000148806855
:1007300070470000000000200248816802781144E0
:1007400081607047000000200B4810B5016841F43B
:1007500000710160016841F480610160016841F449
:1007600080710160032000F097F8002000F006F887
:1007700000F024F8002010BD003C024070B50D4D83
:1007800004464FF47A712878B1FBF0F00A49096801
:10079000B1FBF0F000F0A7FC48B9102C07D2002202
:1007A0002146501E00F058F800206C6070BD0120FA
:1007B00070BD0000000000200C0000201F4808B59C
:1007C000016841F480410160006800F480400090BD
:1007D0001A48001F016841F080510160006800F074
:1007E00080500090032000F057F8002211466FF06F
:1007F0000B0000F031F8002211466FF00A0000F003
:100800002BF8002211466FF0090000F025F80022B5
:100810001146501F00F020F800221146101F00F072
:100820001BF800221146901E00F016F80022BDE8C9
:1008300008401146501E00F00FB800004438024036
:1008400000F01F02012191404009800000F1E020EA
:10085000C0F8001170470000F0B40E4B1B680C4646
:10086000C3F30223C3F10705042D00D90425191D84
:10087000072901D2002300E0DB1E012606FA05F15C
:10088000491E214099409E40761E16403143F0BCDF
:1008900000F0FABD0CED00E0064900F00702086820
:1008A0004FF6FF03184040EA0220034A1043086055
:1008B000704700000CED00E00000FA052DE9F84358
:1008C0001748016841F0805101600068154F00F041
:1008D0008050012600903E64FFF728FF05464FF444
:1008E0007A78114C05E000BFFFF720FF401B404520
:1008F0000DD86068C003F7D57E64FFF717FF054683
:10090000464607E0FFF712FF401BB04202D9032022
:10091000BDE8F88360688003F4D50020F8E70000A4
:100920004038024000000E42007000402DE9F047C0
:100930000E46050065D0DFF81481D8F80000F7B244
:1009400000F00F00B04207D288F80070D8F800001D
:1009500000F00F00B04254D128683D4C810712D5F9
:10096000400703D5206840F4E05020602878000755
:1009700003D5206840F4604020602068A96820F01A
:10098000F000084320602878C0072DD030496868FF
:100990000839012812D0022813D0032811D0096881
:1009A000890700292DDA216821F003010143216024
:1009B000FFF7BCFE814641F2883A0EE009688903E0
:1009C000EFE709688901ECE7FFF7B0FEA0EB09014A
:1009D000514502D90320BDE8F0872068696800F01E
:1009E0000C00B0EB810FEFD1D8F80010404601F0B9
:1009F0000F01B14207D90770006800F00F00B04244
:100A000001D00120E7E72878400705D52068E9688C
:100A100020F4E050084320602878000706D52068BD
:100A2000296920F4604040EAC100206000F03CF8F1
:100A30002168084AC1F30311515CC84006490860A7
:100A40000020FFF79BFE0020C5E70000003C0240AD
:100A500008380240081E00080C0000200148006809
:100A6000704700000C000020044805490068096830
:100A7000044AC1F38221515CC84070470C00002039
:100A800008380240181E0008044805490068096833
:100A9000044AC1F34231515CC84070470C00002049
:100AA00008380240181E0008154810B5006810F0FC
:100AB0000C02144813D01449042A0FD0082A0ED16E
:100AC0000F4C241F2268236802F03F025B0207D507
:100AD0002068C0F38810A0FB010106E0084610BDA5
:100AE0002168C1F38811A1FB00010023FFF77AFB05
:100AF0002168C1F30141491C4900B0FBF1F010BD70
:100B0000083802400024F40040787D012DE9F84FB8
:100B1000050076D02878DFF8F8B2BE4CC00749D07F
:100B2000DBF800105846C1F38101012908D00068A4
:100B3000C0F3810002280AD1201D0068400206D5BA
:100B40002068800336D568680028E2D032E0686803
:100B5000B0F5803F10D0B0F5A02F206810D020F461
:100B600080302060206820F4802020606868A0B178
:100B7000FFF7DCFD06460CE0206840F48030F4E727
:100B800040F480202060F7E7FFF7D0FD801B642849
:100B900073D820688003F7D50CE0FFF7C7FD064641
:100BA00005E000BFFFF7C2FD801B6428F0D8206875
:100BB0008003F7D42878DFF8608280074FF00009BF
:100BC0003ED5DBF80010584611F00C0F09D0006834
:100BD000C0F3810002280BD18D48001F006840023D
:100BE00006D42068800715D5E868012809D111E0EE
:100BF000E868B8B10120C8F80000FFF797FD064685
:100C000005E002E1FFF792FD801B0228C0D82068B2
:100C10008007F7D52068296920F0F80040EAC10074
:100C200020600DE0C8F80090FFF780FD064604E064
:100C3000FFF77CFD801B02281FD820688007F7D4AF
:100C40002878000722D5724E744869696C3671B1F4
:100C500001210160FFF76AFD074604E0FFF766FD2A
:100C6000C01B022809D830688007F7D50EE0C0F80D
:100C70000090FFF75BFD074605E083E0FFF756FDB8
:100C8000C01B02287ED830688007F7D42878400738
:100C900068D5DFF87CA100270AF1380ADAF80000ED
:100CA000C0000BD4DAF8001041F08051CAF80010EF
:100CB000DAF80000012700F080500090584E3068AC
:100CC000C00510D4306840F480703060FFF72EFD0E
:100CD000009005E0FFF72AFD0099401A022851D83C
:100CE0003068C005F6D54A4EA868683601280FD08E
:100CF0000528306810D020F001003060306820F006
:100D000004003060A868B8B1FFF710FD00900FE054
:100D1000306840F00100F4E740F004003060F7E78D
:100D2000FFF704FD0099411A41F28830814264D8EE
:100D300030688007F4D50EE0FFF7F8FC009007E07C
:100D4000FFF7F4FC0099411A41F28830814254D8EF
:100D500030688007F4D42FB1DAF8001021F0805108
:100D6000CAF80010A869C0B3DBF80010C1F3810114
:100D700002294AD00228484607D0C8F86000FFF789
:100D8000D5FC00E039E005463AE04746C8F8600087
:100D9000FFF7CCFC064604E0FFF7C8FC801B0228E6
:100DA0002BD820688001F7D4D5E907010843A96A48
:100DB0001C4A490802EB01416A6A41EA8211084370
:100DC00095F82C1040EA01611148001F01600120D4
:100DD0003866FFF7ABFC054605E014E0FFF7A6FC1C
:100DE000401B022809D820688001F7D50BE000BF1E
:100DF000FFF79CFC401B022802D90320BDE8F88FB6
:100E000020688001F4D40020F8E70120F6E7000014
:100E1000083802400038024000004742800E474236
:100E2000007000400000FFFF70B5040005D00025F1
:100E3000A56294F8510010B106E0012070BD84F85D
:100E40005050204600F030F8022084F8510020680D
:100E5000016821F040010160D4E901010843D4E9AF
:100E600003121143084361690843218B01F40071A7
:100E70000843E1690843216A0843A16A08432168DD
:100E80000860A069042101EA1040616A08432168F2
:100E900048602068C16921F40061C1616565012075
:100EA00084F85100002070BD00B500680E4987B07D
:100EB000884217D10D480021026842F48012026076
:100EC000006800F4801005904FF4607000900220DC
:100ED000CDE90101032003900520049069460448F0
:100EE000FFF738FB07B000BD005001404438024016
:100EF000001402402DE9F84F044690F850000026F7
:100F00000A9F9A4693460D464FF0010801280ED0DD
:100F1000012084F85000FFF709FC814694F8510045
:100F2000616801280CD0B1F5827F07D102E0022070
:100F3000BDE8F88FA16809B9042801D00226BDE0F8
:100F400055B1BBF1000F07D0BAF1000F04D094F8EF
:100F50005100012802D004E00126AFE0052084F80A
:100F6000510000206065C4F838B0A4F83EA0A4F891
:100F70003CA02563A4F836A0A4F834A020646064E3
:100F800020680168490603D4016841F0400101600E
:100F9000E068B0F5006F606804D0E8B3E08E012827
:100FA0003BD06AE010B1E08E01282ED1216835F8DF
:100FB000020BC860E08E401EE08626E0B8F1000F0C
:100FC0000DD0E08E58B120688168890707D535F8C3
:100FD000021BC160E08E401EE0864FF00008E08FEB
:100FE00058B120688168C90707D0C0682BF8020B88
:100FF000E08F401EE0874FF00108781C05D0FFF716
:1010000095FBA0EB0900B84246D2E08E0028D5D16E
:10101000E08F0028D2D136E0FFE7216815F8010BF8
:101020000873E08E401EE08627E000BFB8F1000F95
:101030000DD0E08E58B120688168890707D515F872
:10104000011B0173E08E401EE0864FF00008E08F28
:1010500058B120688168C90707D0C0680BF8010B38
:10106000E08F401EE0874FF00108781C05D0FFF7A5
:101070005DFBA0EB0900B8420ED2E08E0028D5D16E
:10108000E08F0028D2D13B46012202212046CDF834
:10109000009000F01AFA08B103260FE04A463946DC
:1010A000204600F002FA18B101262020606505E014
:1010B000A06818B92068C16880680090012084F891
:1010C0005100002084F85000304631E74FF0E02115
:1010D0000428086903D020F004000861704740F03C
:1010E0000400FAE7704710B5401EB0F1807F01D3CD
:1010F000012010BD4FF0E02460610F21601700F067
:10110000C3F90020A06107202061002010BD10B5A8
:10111000FFF7E8FF10BD704770B50268044610681D
:10112000D168536910F00F0F50D003F0010501F49E
:10113000907635435DD0C20705D0CA0503D5E26B72
:1011400042F00102E263420705D5DA0703D0E26B01
:1011500042F00202E263820705D5DA0703D0E26BB0
:1011600042F00402E263020705D5DA0703D0E26B1E
:1011700042F00802E263E26B002A33D0800604D515
:10118000880602D5204600F08DFA20684069E16BA0
:10119000C0F38010090700D428B3204600F074FA89
:1011A0002068416949061AD5416921F04001416131
:1011B000606BA0B11B490165606BFFF7A7F90028C0
:1011C00010D0606B016DBDE870400847830610D5F4
:1011D0008B060ED52046BDE8704000F063BA20466D
:1011E000FFF799FF70BD2046FFF795FF0020E063F1
:1011F00070BD030606D50B0604D52046BDE8704039
:1012000000F0ECBB4006F3D54806F1D5D168204686
:1012100021F04001D160202184F8391000F0C0F89D
:1012200070BD00007916000870B5040004D094F871
:101230003900002510B106E0012070BD84F8385057
:10124000204600F023F8242084F839002068C16883
:1012500021F40051C160204600F06AFA206801695B
:1012600021F4904101612068416921F02A01416126
:101270002068C16841F40051C160E563202084F812
:10128000390084F83A00002070BD000000B5006805
:10129000114987B088421DD11048016841F40021EE
:1012A00001600068022100F4002005900320CDE9D0
:1012B00000010121CDE90210082004906946084888
:1012C000FFF748F9002211463420FFF7C5FA342011
:1012D000FFF7B6FA07B000BD004C004040380240AE
:1012E0000000024070472DE9F843044690F83900A9
:1012F0001F4616460D46202850D1A5B19EB194F840
:10130000380001284AD0012084F838004FF0000846
:10131000C4F83C80212084F83900FFF707FAA6843E
:101320008146E68426E00120BDE8F883E08C401E7B
:10133000E084A0684B46B0F5805F4FF000024FF0AC
:1013400080012046009703D000F079FBE8B90DE05A
:1013500000F075FBC8B928882168C0F30800486010
:10136000206908B16D1C05E0AD1C03E0216815F88B
:10137000010B4860E08C0028D8D14B460022402168
:101380002046009700F05BFB08B10320CCE720204B
:1013900084F8390084F838800020C5E70220C3E7CC
:1013A0007047FEE72DE9F041234886B0002501682B
:1013B00041F020010160016801F020010591016800
:1013C00041F004010160016801F004010591016828
:1013D00041F001010160016801F00101059101681E
:1013E00041F0400101600068144F00F0400005909A
:1013F000012202213846FFF793F9DFF844804FF4C9
:10140000C046002231464046FFF78AF902200124F7
:10141000CDE90004CDE9024069463846FFF79AF865
:101420000096CDE90145694640460395FFF792F8DD
:1014300006B0BDE8F08100003038024000080240EC
:10144000001802400E4810B50C4901604FF482713B
:10145000416000218160C1604FF400720161C0E908
:101460000512C1610162416281620A21C162FFF716
:10147000DBFC002800D0FEE710BD0000005001405A
:1014800010000020FEE770470907090E002806DA61
:1014900000F00F0000F1E02080F8141D704700F10B
:1014A000E02080F800147047704738B50B46009272
:1014B00004460022802100F008F8002804D0606D66
:1014C00040F020006065032038BD2DE9F0411D4645
:1014D00017460E460446DDF8188035E0681C33D008
:1014E0002DB1FFF723F9A0EB0800A8422CD3206808
:1014F000416821F0E00141606068B0F5827F0BD166
:10150000A068B0F5004F02D0B0F5806F04D120681C
:10151000016821F040010160A06AB0F5005F0AD1C6
:10152000206801684DF6FF72114001602068016873
:1015300041F400510160012084F85100002084F83A
:1015400050000320BDE8F0812068806836EA000082
:1015500004D00020B842C1D10020F3E70120F9E710
:10156000704710B5FFF7E8F8BDE81040FFF7CFBDB2
:1015700030B5274893B00025016841F080510160E3
:10158000006800F0805011902248016841F4404109
:1015900001600068022400F4404011900120039093
:1015A00010200490009406940820CDE90750B42040
:1015B000CDE9090404200B906846FFF7A7FA00B1B3
:1015C000FEE7FFF77BF900B1FEE70CA90F2081E8E9
:1015D00031004FF4A0500F904FF48050109005212F
:1015E0000CA8FFF7A3F900B1FEE7FFF737FA4FF4B5
:1015F0007A71B0FBF1F0FFF776FD0420FFF766FD8E
:1016000000221146501EFFF727F913B030BD00002D
:1016100040380240007000401048016841F47001F9
:1016200001600F48016841F0010101600C4A00218E
:101630000832116002680B4B1A400260031D0A4A0F
:101640001A60026822F48022026005480C300160B2
:1016500002495806803908607047000088ED00E0B4
:1016600000380240FFFFF6FE103000240148FFF76B
:1016700053BD00006800002010B5806B0021C185BB
:10168000C184FFF748FD10BD0168CA6822F490725A
:10169000CA6001684A6922F001024A61202180F88B
:1016A0003A10704710B590F83A10222901D0022064
:1016B00010BD8168B1F5805F11D001690029016812
:1016C0001FD0496801F07F03816A4A1C82620B7057
:1016D000C18D491E0904090CC18518D026E0026994
:1016E000816A002A0268526805D0D2B20A80816AF3
:1016F000491C8162ECE7C2F308020A80816A891CF6
:10170000F7E74A68816A4B1C83620A70E0E7016868
:10171000CA6822F49072CA6001684A6922F0010224
:101720004A61202180F83A10FFF7DCFD002010BD4F
:101730002DE9F04104460068016921F44052E16856
:10174000114301612168C86849F20C629043236922
:10175000A268E5691A4363692B431A430243CA60CE
:101760002168486920F44072A06910434861E1692A
:101770006425B1F5004F9748974A21684FF0320829
:101780003FD0914201D081427CD1FFF77DF900EB3F
:10179000C00101EB001061688900B0FBF1F6FFF7B2
:1017A00073F900EBC00101EB001061688900B0FB28
:1017B000F1F0B0FBF5F06FF01801484306EB800143
:1017C00008EB0110B0FBF5F000F0F006FFF75CF954
:1017D00000EBC00101EB001061688900B0FBF1F083
:1017E000B0FBF5F006EB0016FFF74EF900EBC00179
:1017F00001EB001061688900B0FBF1F7FFF744F9D5
:10180000D2E0914201D081423DD1FFF73DF900EB9A
:10181000C00101EB001061684900B0FBF1F0B0FBC2
:10182000F5F00601FFF730F900EBC00101EB001005
:1018300061684900B0FBF1F7FFF726F900EBC00142
:1018400001EB001061684900B0FBF1F0B0FBF5F06E
:101850006FF01801484307EB800108EBC100B0FBB3
:10186000F5F000F0F80006EB4006FFF70DF900EB8D
:10187000C00101EB001061684900B0FBF1F7FFF710
:1018800003F93CE055E0FFF7EFF800EBC00101EB96
:10189000001061684900B0FBF1F0B0FBF5F0060103
:1018A000FFF7E2F800EBC00101EB001061684900AE
:1018B000B0FBF1F7FFF7D8F800EBC00101EB001027
:1018C00061684900B0FBF1F0B0FBF5F06FF0180172
:1018D000484307EB800108EBC100B0FBF5F000F0D6
:1018E000F80006EB4006FFF7BFF800EBC00101EB84
:1018F000001061684900B0FBF1F7FFF7B5F800EBA5
:10190000C00101EB001061684900B0FBF1F0B0FBD1
:10191000F5F06FF01801484307EB800108EBC100B8
:10192000B0FBF5F000F00700216830448860BDE8A6
:10193000F081FFF799F800EBC00101EB001061683E
:101940008900B0FBF1F6FFF78FF800EBC00101EB67
:10195000001061688900B0FBF1F0B0FBF5F06FF0AA
:101960001801484306EB800108EB0110B0FBF5F0CD
:1019700000F0F006FFF778F800EBC00101EB001073
:1019800061688900B0FBF1F0B0FBF5F006EB0016E2
:10199000FFF76AF800EBC00101EB001061688900F5
:1019A000B0FBF1F7FFF760F800EBC00101EB0010AE
:1019B00061688900B0FBF1F0B0FBF5F06FF0180141
:1019C000484307EB800108EB0110B0FBF5F000F095
:1019D0000F00A9E7001401400010014090F83910F1
:1019E000212901D0022070478168B1F5805F016A2A
:1019F0000BD04A1C0262026809785160C18C491EF2
:101A00000904090CC1840ED017E009880268C1F3EB
:101A10000801516001690029016A02D0491C016274
:101A2000ECE7891CFBE70168CA6822F08002CA6003
:101A30000068C16841F04001C160002070472DE995
:101A4000F041984617460E460446069D1DE0681C68
:101A50001BD02DB1FEF76AFEA0EB0800A84214D9F6
:101A60002068C16821F4D071C1602068416921F00B
:101A700001014161202084F8390084F83A000020F7
:101A800084F838000320BDE8F0812068006836EA59
:101A9000000004D00020B842D9D00020F3E7012094
:101AA000F9E7FEE702E008C8121F08C1002AFAD1D0
:101AB00070477047002001E001C1121F002AFBD1CE
:101AC0007047000088B000258DF804508DF808504C
:101AD0000395ADF81450ADF81850ADF81C50FEF752
:101AE00033FEFFF745FDFFF75DFCFFF7ABFCB648A3
:101AF000B44901604FF4E131C0E901150C21C56022
:101B0000C0E904518561C561FFF78EFB00B1FEE7B6
:101B1000AA208DF810004FF480542346012204A916
:101B2000A948FFF7E0FB0122DFF8A0825603314607
:101B30004046FEF7F5FD4FF4FA60FEF7F9FCA44FBE
:101B4000002202213846FEF7EBFD20208DF804002C
:101B50009D48012302AA01A958380094FFF7CAF949
:101B60000F208DF804009848012302AA01A95838D3
:101B70000094FFF7BFF9012202213846FEF7D0FD9D
:101B80002346012202A99048FFF7ADFB0022022163
:101B90003846FEF7C5FD8F208DF804008A480123E2
:101BA00002AA01A958380094FFF7A4F986488DF8D5
:101BB0000450012302AA01A958380094FFF79AF9AA
:101BC000012202213846FEF7ABFD2346012202A97D
:101BD0007D48FFF788FB002202213846FEF7A0FD72
:101BE00023208DF804007848012302AA01A958385F
:101BF0000094FFF77FF930208DF80400724801232C
:101C000002AA01A958380094FFF774F901220221B1
:101C10003846FEF785FD2346012202A96A48FFF7F0
:101C200062FB40F6B830FEF783FC002231464046A6
:101C3000FEF776FD03AE4FF0BB0B4FF0E8084FF018
:101C4000EA094FF0EC0A00BF8DF810B023460122DC
:101C500004A95D48FFF747FB002202213846FEF742
:101C60005FFD59488DF80480012302AA01A9583864
:101C70000094FFF73FF954488DF80450012303AA5C
:101C800001A958380094FFF735F94F488DF80450F2
:101C90000123721C01A958380094FFF72BF9012287
:101CA00002213846FEF73CFDBDF80C00ADF81400EB
:101CB0002346022205A94448FFF715FBBDF814008E
:101CC00000F090F800F086F8002202213846FEF776
:101CD00027FD3D488DF80490012302AA01A9583838
:101CE0000094FFF707F938488DF80450012303AA40
:101CF00001A958380094FFF7FDF833488DF80450D7
:101D00000123721C01A958380094FFF7F3F801224F
:101D100002213846FEF704FDBDF80C00ADF81800AE
:101D20002346022206A92848FFF7DDFABDF818006D
:101D300000F058F800F04EF8002202213846FEF775
:101D4000EFFC21488DF804A0012302AA01A958380C
:101D50000094FFF7CFF81C488DF80450012303AA24
:101D600001A958380094FFF7C5F817488DF80450BA
:101D70000123721C01A958380094FFF7BBF8012217
:101D800002213846FEF7CCFCBDF80C00ADF81C0073
:101D90002346022207A90C48FFF7A5FABDF81C004C
:101DA00000F020F800F016F8CC208DF81000234643
:101DB000012204A90448FFF796FA6420FEF7B8FB55
:101DC00042E70000004C004068000020001802407C
:101DD00000080240DFED020A20EE200A70470000F2
:101DE000CDCCCC3D10B5FEF7A0FA9FED051B53EC12
:101DF000112BFEF728FAFEF7A5FA00EE100A10BD27
:101E0000EC51B81E85EBB13F00000000000000005F
:101E10000102030406070809000000000102030490
:101E2000401E00080000002010000000A41A000856
:101E3000501E00081000002098040000B41A00088A
:101E40000100000010000000000000000024F40069
:04000005080001AD41
:00000001FF
